:020000040800F2
:1000000000000220C1460108957700089B77000890
:10001000A1770008A7770008AD770008000000006E
:10002000000000000000000000000000B37700089E
:10003000C177000800000000CF770008DD770008D6
:10004000114701081147010811470108114701082C
:10005000114701081147010811470108114701081C
:10006000114701081147010811470108E977000805
:100070001D780008114701081147010811470108C0
:10008000114701081147010811470108000000004D
:1000900000000000000000000000000011470108FF
:1000A00011470108114701081147010811470108CC
:1000B000114701081147010811470108517800084C
:1000C000F17800081147010811470108114701089C
:1000D00011470108FD7800081147010800000000E1
:1000E00011470108114701081147010800000000ED
:1000F000000000000000000000000000114701089F
:1001000000000000114701081147010811470108CC
:1001100000000000000000000000000000000000DF
:10012000114701081147010811470108114701084B
:10013000114701080000000000000000000000005E
:100140000000000000000000000000000D79000821
:10015000114701081147010811470108114701081B
:1001600011470108114701080000000000000000CD
:10017000000000000000000000000000000000007F
:10018000000000001147010800000000000000000E
:080190001147010811470108A5
:1001C0000348044B834202D0034B03B118477047E6
:1001D000D4020020D4020020000000000548064997
:1001E0000B1AD90F01EBA301491002D0034B03B145
:1001F00018477047D4020020D402002000000000FD
:1002000010B5064C237843B9FFF7DAFF044B13B15E
:100210000448AFF300800123237010BDD8020020F2
:10022000000000004447010808B5044B1BB1044915
:100230000448AFF30080BDE80840CFE700000000AD
:10024000DC020020444701082DE9F84F55EC104B23
:10025000C74B25F000469E42AA461ADDC54B9E427A
:100260000DDC0AD0BAF1000F40F3C880A4A1D1E997
:10027000000141EC100BBDE8F88F002CF2D02246B3
:100280002B462046294605F061FD41EC100BBDE8E8
:10029000F88FB94B9E4200F3C080A3F1DE739E42FB
:1002A00040F39A804FF0FF3B22462B4620462946DA
:1002B00005F002FF02460B468046894605F0FCFE2B
:1002C00091A3D3E9002306460F4605F0F5FE90A35F
:1002D000D3E9002305F03AFD32463B4605F0ECFE3B
:1002E0008DA3D3E9002305F031FD32463B4605F0EE
:1002F000E3FE8BA3D3E9002305F028FD32463B46FD
:1003000005F0DAFE88A3D3E9002305F01FFD32468D
:100310003B4605F0D1FE86A3D3E9002305F016FD88
:1003200042464B4605F0C8FE83A3D3E9002380462E
:1003300089463046394605F0BFFE81A3D3E9002344
:1003400005F002FD32463B4605F0B6FE7EA3D3E93A
:10035000002305F0F9FC32463B4605F0ADFE7CA3D8
:10036000D3E9002305F0F0FC32463B4605F0A4FE3D
:1003700079A3D3E9002305F0E7FC32463B4605F0BC
:100380009BFE02460B464046494605F0DFFC2246EE
:100390002B4605F091FEBBF1FF3F02460B4634D0E1
:1003A000764B03EBCB0BDBE9082305F0CDFC2246B3
:1003B0002B4605F0C9FC02460B46DBE9000105F0BF
:1003C000C3FCBAF1000FBFF660AF01F1004319465C
:1003D00041EC100BBDE8F88F61A3D3E9002310EEC8
:1003E000100A294605F0B2FC0022654B06F0F4F82D
:1003F00000283FF457AF2046294646E75AA1D1E9E5
:10040000000141EC100BBDE8F88F2046294605F0AD
:100410009BFC41EC100BBDE8F88F00F0BBF8594B8A
:100420009E4255EC104B23DCA3F550239E424CDC3E
:1004300010EE102A10EE100A2B46294605F086FC15
:1004400000224F4B05F080FC002206460F464FF07D
:1004500080432046294605F079FC02460B4630468B
:10046000394605F053FF4FF0000B04460D461BE7DD
:10047000454B9E421DDC10EE100A0022434B2946DC
:1004800005F062FC002206460F46404B20462946F6
:1004900005F012FE00223A4B05F058FC02460B46CE
:1004A0003046394605F032FF4FF0020B04460D4648
:1004B000FAE62B4610EE102A0020354905F026FFFB
:1004C0004FF0030B04460D46EEE610EE100A002234
:1004D0002B4B294605F038FC002206460F46284BD8
:1004E0002046294605F032FC02460B463046394686
:1004F00005F00CFF4FF0010B04460D46D4E600BF9B
:10050000182D4454FB21F93F11DA22E33AAD903F14
:10051000EB0D76244B7BA93F513DD0A0660DB13F3A
:100520006E204CC5CD45B73FFF8300922449C23FA2
:100530000D5555555555D53F2F6C6A2C44B4A2BF67
:100540009AFDDE522DDEAD3F6D9A74AFF2B0B33F2F
:10055000711623FEC671BC3FC4EB98999999C93FA7
:100560009C7500883CE4377E182D4454FB21F9BF6C
:10057000FFFF0F440000F07FFFFFDB3F584E0108F4
:100580000000F03FFFFFF23FFF7F03400000F83F15
:100590000000F0BF51EC100B10EE102A21F00043C8
:1005A00043EC102B704700BF00F00EB900000000B4
:1005B000F8B52DED028B57EC106B55EC114B00F09C
:1005C000EBF9614BB0EE408AF0EE608A93F90030AF
:1005D00001332AD022462B462046294606F006F84B
:1005E00018BB32463B463046394605F0FFFF00282F
:1005F00044D1002200233046394605F0C5FFD8B16A
:10060000002200232046294605F0BEFF00283DD1E8
:1006100045EC104B01F0B6F838B1204629460022CF
:10062000002305F0BBFF00285BD1B0EE480AF0EED6
:10063000680ABDEC028BF8BDB0EE480AF0EE680A1D
:1006400001F0A0F858B30022002351EC180B05F07C
:100650009BFF0028E9D047EC106B01F093F80028CD
:10066000E3D045EC104B01F08DF80028DDD001F00F
:100670009BFA222303609FED2C8BD6E72046294668
:100680000022002305F080FF0028CED09FED288BAC
:10069000B0EE480AF0EE680ABDEC028BF8BD47ECFC
:1006A000106B01F06FF80028CDD045EC104B01F035
:1006B00069F80028C7D053EC182B18EE100A194619
:1006C00005F094FF18BB01F06FFA222303600022AB
:1006D00000233046394605F061FF48B99FED168B7F
:1006E000A3E701F061FA212303609FED158B9CE7DE
:1006F00045EC104B01F058F822462B4651EC100BFC
:1007000005F042FF0028E9D19FED0D8B8DE701F048
:100710004BFA00220023212101601046194605F002
:10072000F5FD41EC180B80E7000000000000000020
:10073000000000000000F03F000000000000F07F1B
:10074000000000000000F0FF0000002038B52DED93
:10075000028B55EC104B00F08BFE184BB0EE408A2C
:10076000F0EE608A93F9003001330DD022462B461B
:100770002046294605F03AFF30B920462946002296
:10078000002305F00BFF30B9B0EE480AF0EE680A1E
:10079000BDEC028B38BD01F007FA002200232121B5
:1007A00001601046194605F0B1FD41EC180BB0EEA2
:1007B000480AF0EE680ABDEC028B38BD000000204C
:1007C00000F022BF0000000051EC110B43422DE964
:1007D000F047034321F0004E6D4F4EEAD373BB4206
:1007E00055EC104B1ED86342234325F0004A4AEAD9
:1007F000D373BB42A94615D801F1404303F58013DA
:1008000003434BD08E1706F002065AEA040346EA69
:10081000D5760FD1022E45D0032E38D14AA1D1E989
:10082000000103E022462B4605F090FA41EC100B44
:10083000BDE8F0875EEA000322D0BE453AD0BA4553
:100840001ED0AAEB0E0E4FEA2E5EBEF13C0F2DDC41
:1008500000293FDA1EF13C0F3CDA00200021012E76
:1008600054D0022E45D0002EE0D039A3D3E9002386
:1008700005F06AFA38A3D3E9002305F065FAD5E755
:10088000B9F1000F22DB36A1D1E90001CEE710EE6D
:10089000100A294641EC100BBDE8F087BDE8F0478F
:1008A000FFF7D2BC2CA1D1E90001BFE72CA1D1E90F
:1008B0000001D4E7F2452DD0022EF3D0032EADD0A7
:1008C000012E4FF000002FD00021AFE726A1D1E983
:1008D0000001ABE702460B462046294605F016FD0F
:1008E00041EC100BFFF756FEFFF7AEFC51EC100B7E
:1008F000B5E717A3D3E9002305F026FA02460B4615
:1009000015A1D1E9000105F01FFA8FE701F10043BD
:1009100019468BE7022E12D0032E0CD0012E06D0E2
:1009200013A1D1E9000181E74FF000417EE712A158
:10093000D1E900017AE712A1D1E9000176E712A11D
:10094000D1E9000172E700BF182D4454FB2109C012
:10095000075C143326A6A13C182D4454FB21094002
:10096000182D4454FB21F93F182D4454FB21F9BFA5
:10097000182D4454FB21E93F182D4454FB21E9BFB5
:10098000D221337F7CD902C0D221337F7CD902406F
:100990000000F07F000000002DE9F04F51EC110B3A
:1009A00021F0004555EA000393B03DD059EC108B7F
:1009B000694B29F000449C424E4610EE10AA2CDCF4
:1009C0000F4611EE10CA36D09D4226DC624B9D4286
:1009D00020D0002ECDE9000138DB4FF0000BBCF138
:1009E000000F4ED15C4B9D4200F094805B4B9D42CA
:1009F00000F0A180B7F1804F00F09E84584B9F42D9
:100A00003FD1002E3DDB49EC108B13B0BDE8F04F19
:100A100000F02EBDBCF1000FDBD004F1404404F522
:100A2000801454EA0A030BD14C49002041EC100B0E
:100A300013B0BDE8F08FB8F1000F01D1A542C5DDBC
:100A4000484813B0BDE8F04F00F0A6BE464B9D42AB
:100A500077DCA3F154739D420EDD2B15A3F2FF3317
:100A6000142B40F37184C3F134032CFA03F202FA1D
:100A700003F3634500F0B7844FF0000BBCF1000FA7
:100A8000B4D049EC108BFFF785FD51EC100BBAF197
:100A9000000F22D124B1314B26F040429A421CD1A2
:100AA000002F05DA02460B4600202C4905F02EFCEB
:100AB000002EBBDA04F1404404F5801454EA0B0321
:100AC00040F0648402460B461046194605F03CF996
:100AD00002460B4605F01AFCA8E7F30F03F1FF3AB4
:100AE0005BEA0A0330D0214B9D4243DD03F10473DE
:100AF0009D4240F3AF831E4B9C4240F33B83002F4B
:100B000040F33B8312A3D3E900231046194605F0B6
:100B1000D3FA8BE704F1404303F5801353EA0A0349
:100B200082D0134B9C4240F35383002FC0F22583A5
:100B3000DDE900017AE7002FC0F2F683404649461E
:100B400074E74FF0020B4AE742464B46BCE700BF52
:100B50009C7500883CE4377E0000F07F0000F03F89
:100B60000000E03F80A90208FFFF3F430000E04192
:100B7000FFFFEF3FD24B3340002B40F0D3830022E6
:100B8000D04B05F099FA6FF034060C462315CE4A87
:100B9000C4F31304A3F2FF3344F07F559E1994422B
:100BA0000D9645F4401540F3B083C84B9C4240F38A
:100BB000F6839FEDAD7B8DED087B8DED107B9FED7A
:100BC000AC7B8DED067B01360D96A5F580154FF0BB
:100BD0000008DDE906232946064605F0B5F8DDE9FB
:100BE0000623CDE90A013046294605F0AFF8024652
:100BF0000B460020B64905F089FB03460C46CDE9BB
:100C00000E3402460B46DDE90A0105F055FA6B1079
:100C100043F0005303F500230A462F46014603EB39
:100C200008050023CDE902120293DDE902890024C0
:100C3000CDE904122B4622464046494605F03CFACF
:100C400002460B46DDE90A0105F07EF8DDE90623E0
:100C5000CDE90A012046294605F076F802460B4602
:100C60003046394605F070F842464B4605F024FA06
:100C700002460B46DDE90A0105F066F8DDE90E23C0
:100C800005F01AFADDE90445CDE9060122462B46B6
:100C90002046294605F010FA77A3D3E9002304463D
:100CA0000D4605F009FA76A3D3E9002305F04EF8C6
:100CB00022462B4605F000FA73A3D3E9002305F082
:100CC00045F822462B4605F0F7F971A3D3E9002336
:100CD00005F03CF822462B4605F0EEF96EA3D3E969
:100CE000002305F033F822462B4605F0E5F96CA306
:100CF000D3E9002305F02AF8224606460F462B4684
:100D00002046294605F0D8F902460B4630463946BA
:100D100005F0D2F9424604460D464B46DDE9040192
:100D200005F014F8DDE9062305F0C6F922462B4646
:100D300005F00CF8424606460F464B4640464946EB
:100D400005F0BAF90022634BCDE90A0104F0FEFF79
:100D500032463B4604F0FAFF02980D46044622460E
:100D60002B464046494605F0A7F9002280468946B1
:100D7000584B2046294604F0E7FFDDE90A2304F03A
:100D8000E3FF02460B463046394604F0DDFFDDE95D
:100D9000042305F091F9224606460F462B46DDE96D
:100DA000060105F089F902460B463046394604F043
:100DB000CDFF06460F4602460B464046494604F024
:100DC000C5FF029838A3D3E9002304460D4605F079
:100DD00073F94246CDE904014B462046294604F00A
:100DE000B3FF02460B463046394604F0ADFF30A350
:100DF000D3E9002305F060F92FA3D3E900230646C9
:100E00000F462046294605F057F902460B46304664
:100E1000394604F09BFFDDE9102304F097FF0446F8
:100E20000D980D4605F0DEF8224606460F462B4685
:100E3000DDE9040104F08AFFDDE9082304F086FF00
:100E400032463B4604F082FF029832463B468046DB
:100E5000894604F079FFDDE9082304F075FFDDE938
:100E6000042339E0AFF30080000000000000000020
:100E7000000000000000F03FEF4E454A287ECA3FC8
:100E800065DBC9934A86CD3F01411DA96074D13FFE
:100E90004D268F515555D53FFFAB6FDBB66DDB3F10
:100EA000033333333333E33F000000E009C7EE3F41
:100EB000FD033ADC09C7EE3FF5015B14E02F3EBEAF
:100EC0000000F07F000040438E98030079B60B00CD
:100ED0000000F03F0000084004F036FF0B460246D9
:100EE0002946204604F030FF0BF1FF3353EA0A0392
:100EF000CDE9020140F067819FEDB97B8DED047B68
:100F0000DDE9002300261046194632461F4604F04C
:100F10001BFF42464B4605F0CFF8DDE90023824631
:100F20008B46DDE9020105F0C7F802460B46504644
:100F3000594604F00BFF32468B4682463B464046FC
:100F40004946CDE900AB05F0B7F80B4602468046AE
:100F500089465046594604F0F9FEB94B9942044679
:100F60000D468B4640F30C8101F13F4303F5E0034E
:100F7000034340F0FD819CA3D3E90023DDE9000198
:100F800004F0E4FE424606460F464B4620462946FC
:100F900004F0DAFE02460B463046394605F01CFBEB
:100FA000002840F0E581CBF30A534FF48012A3F2FE
:100FB000FE3342FA03F35B44C3F30A52A14DA2F29B
:100FC000FF321541C3F3130423EA05010020C2F1E7
:100FD000140A44F48014BBF1000F02460B4644FA95
:100FE0000AFA40464946B8BFCAF1000A04F0ACFE0E
:100FF000804689464246DDE900014B4604F0A6FEE4
:101000004FEA0A5B0D46002479A3D3E9002320466A
:10101000294605F051F8424606460F464B46204603
:10102000294604F091FE02460B46DDE9000104F07A
:101030008BFE71A3D3E9002305F03EF870A3D3E93A
:101040000023804689462046294605F035F80246A9
:101050000B464046494604F079FE804689460246E2
:101060000B463046394604F071FE32463B46044694
:101070000D4604F069FE02460B464046494604F020
:1010800063FE2246804689462B462046294605F0C7
:1010900013F85DA3D3E9002306460F4605F00CF8CC
:1010A0005BA3D3E9002304F04FFE32463B4605F034
:1010B00003F859A3D3E9002304F048FE32463B4627
:1010C00004F0FAFF56A3D3E9002304F03DFE3246B4
:1010D0003B4604F0F1FF54A3D3E9002304F036FEAD
:1010E00032463B4604F0E8FF02460B4620462946BE
:1010F00004F02AFE06460F4602460B4620462946C5
:1011000004F0DAFF0022CDE900014FF080433046C1
:10111000394604F019FE02460B46DDE9000105F0F0
:10112000F5F8424606460F464B462046294604F04F
:10113000C3FF42464B4604F009FE02460B463046CA
:10114000394604F001FE22462B4604F0FDFD02461E
:101150000B4600203C4904F0F7FD8B44BBF5801F93
:1011600002460B46C0F237815946DDE9042304F0FC
:10117000A3FF5BE4002FFFF6C5AC0020002155E47F
:10118000DFF8CCC021F00043634540F3EB802F4BE8
:101190000B4403430AD142464B4604F0D5FDDDE93A
:1011A000002305F00FFA00283FF4FDAEDDE904014D
:1011B0001FA3D3E9002304F07FFF1DA3D3E900237D
:1011C00004F07AFF32E49FED1C7B8DED047B97E603
:1011D000002FD2DADDE90034184604F1004125E49D
:1011E000000000000000F0BFFE822B654715973C11
:1011F00000000000432EE63FEF39FAFE422EE63FA4
:10120000396CA80C615C20BED0A4BE726937663E02
:10121000F16BD2C541BDBB3E2CDE25AF6A56113FF6
:1012200093BDBE166CC1663F3E5555555555C53FDD
:1012300059F3F8C21F6EA501000000000000F03F46
:10124000FFFF8F40FFFF0F000000F03F00346F3FB3
:10125000FFCB9040824B9C428CDD824B9C423FF7FF
:101260004EAC00227F4B04F06FFD69A3D3E900234D
:1012700004460D4604F020FF67A3D3E90023064689
:101280000F462046294604F017FF00228046894673
:10129000754B2046294604F00FFF02460B4660A11D
:1012A000D1E9000104F050FD22462B4604F004FF72
:1012B00002460B4600206D4904F046FD2246CDE96A
:1012C00002012B462046294604F0F6FE02460B4654
:1012D000DDE9020104F0F0FE53A3D3E9002304F09A
:1012E000EBFE02460B464046494604F02DFD024601
:1012F0000B4604460D463046394604F027FD0020D3
:101300008046894632463B46E6E59FED497B8DEDBA
:10131000087B8DED107B9FED487B4FF000088DED35
:10132000067B56E4002631E442464B4600204D49F8
:1013300004F0ECFFFFF77ABB42464B464046494675
:1013400004F0BAFEFFF772BBBCF1000F36D1C3F157
:10135000140345FA03F202FA03F3AB424DD0E3461D
:10136000FFF744BB414A93424DDCB346B2464AE6DE
:10137000DDE9040132A3D3E9002304F09DFE30A38C
:10138000D3E9002304F098FEFFF750BBBBF1010F37
:101390007FF44CAB01F100431946FFF747BB9FEDCB
:1013A0002A7B8DED087B9FED2A7B8DED107B9FEDD9
:1013B0002A7B4FF480288DED067B0AE449EC108BE4
:1013C000FFF7E8F851EC100BBAF1000F7FF4BCAB5B
:1013D000D346FFF75FBB504643EC102B00F074FA86
:1013E00051EC100BC1E602F00102C2F1020BBCF19C
:1013F000000F3FF4FBAAFFF744BB02F00102C2F169
:10140000020BFFF7F3BA1B15CFE500BFAFF3008067
:10141000000000604715F73F44DF5DF80BAE543E17
:10142000555555555555D53FFE822B654715F73F08
:101430000000000000000000000000000000F03F7D
:101440009C7500883CE4377E0000004003B8E23F12
:1014500006D0CF43EBFD4C3E000000000000F83FFB
:10146000FEFFEF3F0000F03F0000D03F0000E03FF4
:101470002DE9F041634955EC104BA94300F09F80E2
:10148000002D2B4610EE102A52DD5FEA255E00F09B
:10149000B180C3F31303AEF2FF3E43F48013D10FC8
:1014A0001EF0010F01EB43034FEA420403D0E40FA7
:1014B00004EB430394004FF0000C4FEA6E0E6646B7
:1014C00016254FF40012B118994202DC5B1A8E18EF
:1014D00094445B00013D03EBD4734FEA52024FEAA0
:1014E0004404F0D12F4620204FF0004209E041D0C3
:1014F000E10F01384FEA520201EB43034FEA440483
:1015000041D0B34202EB0501F1DD002901EB0205F8
:1015100009DBB0469B1BA14288BF03F1FF33641A6D
:1015200017444646E4E7002DF3DB06F10108F1E736
:1015300025F00041214339D0002D50D1D40A153B6C
:1015400052052146002CF9D0E50256D4002000E0D7
:1015500028464900CC0200F10105F9D50C46114698
:10156000AA40C5F1200521FA05F5A3EB000E45EAD6
:1015700004038EE7A142BBD8002901EB0205D2DBB0
:1015800098460023CBE7234312D178084FEA6C0139
:1015900001F17F511CF0010F01F5001118BF40F05F
:1015A000004001EB0E53024643EC102BBDE8F081E6
:1015B0007B1C16BF781C0CF1010C4008E6E710EE0E
:1015C000102A2B4610EE100A294604F075FD22461B
:1015D0002B4604F0BBFB41EC100BBDE8F08120462C
:1015E000294604F0B1FB02460B4604F08FFE41ECA5
:1015F000100BDBE729467346A8E7114620254FF07C
:10160000FF30B0E70000F07F10B582B0CDED010AE9
:10161000019B23F00042B2F1FF4FF0EE407A19DC5B
:1016200010EE100A20F00041B1F1FF4F12DCB3F1CF
:101630007E5F51D09C1704F0020444EAD07479B95B
:10164000022C36D09FED440A032C18BFB0EE670A77
:1016500002B010BD9DED017A37EE270A02B010BD31
:10166000F2B1B2F1FF4F27D0B1F1FF4F52D08A1A39
:10167000D2153C2A35DC002B43DA3C3241DA9FEDAF
:10168000370A012C58D0022C4DD0002CE6D0DFEDCB
:10169000347A9FED347A70EE277A37EEC70ADDE7A9
:1016A0009FED310ADFED317A0028B8BFB0EE670A4E
:1016B000D4E79FED2C0AD1E7B1F1FF4F14D0022CF3
:1016C000F7D0032C3FD0DFED2A7A9FED240A012CBE
:1016D00008BFB0EE670AC1E702B0BDE8104000F0F5
:1016E00085B99FED210ACCE7022C32D0032C2DD0F6
:1016F000DFED207A9FED200A012C08BFB0EE670ACB
:10170000ACE79DED010A87EE800A00F03DFA00F09B
:101710006DF9B6E7DFED147A9FED140A0028A8BF33
:10172000B0EE670A9AE7DFED0E7A9FED0E7A70EE63
:10173000277A37EE670A91E710EE103A03F100437B
:1017400000EE103A8AE79FED040A87E79FED0B0A47
:1017500084E79FED0B0A81E7DB0F49C00000000022
:101760002EBDBB33DB0F4940DB0FC93FDB0FC9BFC9
:1017700000000080DB0F49BFDB0F493FE4CB16C000
:10178000E4CB164010EE903A43F0004000F5801094
:10179000C00F7047000000009FED010B704700BFB5
:1017A000000000000000F87FF0B553EC102BC3F3ED
:1017B0000A56A6F2FF30132883B019464FEAD374B5
:1017C00010EE105A37DC00282DDB3D4E064103EAAF
:1017D000060717432BD0760833401D430CD04FF437
:1017E0008023132821EA060643FA00F141EA0601A4
:1017F0000CBF4FF000450025324800EBC4042A46D8
:10180000D4E900450B462046294604F09FFACDE96D
:10181000000122462B46DDE9000104F095FA41EC77
:10182000100B03B0F0BD23F00040104322D143EC75
:10183000102B03B0F0BD332809DDB0F5806FF6D171
:1018400010EE100A04F082FA41EC100BF1E7A6F258
:1018500013464FF0FF30F0400242E8D04008024209
:10186000CAD04FF0804325EA000043FA06F640EA6A
:101870000605C1E7C3F31300104345420543114871
:1018800000EBC400D0E90067590C2D0B490405F4A6
:10189000002545EA01033046394604F057FACDE900
:1018A00000013B463246DDE9000104F04DFA21F02B
:1018B000004343EAC47141EC100B03B0F0BD00BF1C
:1018C000FFFF0F00984E010838B553EC102BC3F3FF
:1018D0000A511C46054681BB10EE101A23F0004445
:1018E000214329D0194600223D4B3E4C10EE100AF0
:1018F00004F0E2FBA54202460B4616DB0C46C1F3A0
:101900000A513639294440F2FE70814221DC002917
:1019100047DC11F1350F34DA4CF250318D4218DCCE
:10192000002B27A1D1E9000144DB25A3D3E9002343
:1019300004F0C2FB41EC100B38BD40F2FF70814255
:10194000E0D110EE100A194604F000FA41EC100B39
:1019500038BD002B1CA1D1E9000107DB1AA3D3E994
:10196000002304F0A9FB41EC100B38BD18A1D1E90C
:10197000000115A3D3E9002304F09EFB41EC100BFA
:10198000F3E724F0FF4424F4E004363144EA015341
:10199000104619460022144B04F08EFB41EC100B4C
:1019A00038BD24F0FF4424F4E00444EA015343EC3E
:1019B000102B38BD08A1D1E90001B6E7AFF30080D4
:1019C00059F3F8C21F6EA5019C7500883CE4377E70
:1019D0009C7500883CE437FE59F3F8C21F6EA58160
:1019E00000005043B03CFFFF0000903C38B510EEC3
:1019F000105A25F00044B4F1A14FF0EE407A0BDB11
:101A0000B4F1FF4F56DCDFED4E7A9FED4E0A002D0C
:101A1000C8BFB0EE670A38BD4B4B9C425CDCB4F1EA
:101A2000445F4ADB4FF0FF3267EEA76ADFED471AEB
:101A3000DFED472A9FED472A9FED473ADFED473A12
:101A40009FED474ADFED474A9FED475ADFED475A82
:101A50009FED470A9FED476A26EEA67A531CE7EEF4
:101A6000212AA7EE023AE2EE873AA3EE074AE3EE16
:101A7000874AA4EE075AE4EE875AA5EE070AA5EEB8
:101A8000876A20EE070AA6EE260A20EE270A20D053
:101A9000394B03EB8203D3ED046A93ED007A30EE09
:101AA000660A002D70EE677A37EE670AB3DAB1EE98
:101AB000400A38BD30EE000A38BD9FED307A30EE76
:101AC000077AF7EE006AB4EEE67AF1EE10FAA9DDD5
:101AD00038BD37EEC00A38BD00F056F8284B9C429E
:101AE0000FDCA3F5D0039C4220DCF0EE007ABFEEC1
:101AF000007AA0EE277A002230EE270AC7EE007A9D
:101B000092E7204B9C420BDCF7EE087AB7EE007AA6
:101B1000A0EE277A022230EE670AC0EE077A83E74A
:101B2000BFEE007AC7EE007A03227DE7F7EE007A77
:101B300030EE677A30EE270A0122C7EE007A73E7AB
:101B4000DB0FC93FDB0FC9BFFFFFDF3ED769853C15
:101B500059DA4B3D21A215BD6BF16EBD356B883D49
:101B600095879DBD6E2EBA3D388EE3BD2549123E48
:101B7000CDCC4CBEABAAAA3EA84E0108CAF2497110
:101B8000FFFF973FFFFF1B4010EE103A23F000438A
:101B900000EE103A704700BF08B5062000F0B8FF0D
:101BA000012005F0D5FE00BF014B1868704700BF4B
:101BB0000400002070B50D4E0D4D761BB61006D0FA
:101BC0000024013455F8043B9847A642F9D1094E48
:101BD000094D761B12F0B6FDB61006D00024013474
:101BE00055F8043B9847A642F9D170BDCCA902082C
:101BF000CCA90208D8A90208CCA90208024B0146C8
:101C0000186800F04BB900BF04000020024B0146E9
:101C1000186800F0EDB800BF04000020844641EAD7
:101C2000000313F003036DD1403A41D351F8043B54
:101C300040F8043B51F8043B40F8043B51F8043BA6
:101C400040F8043B51F8043B40F8043B51F8043B96
:101C500040F8043B51F8043B40F8043B51F8043B86
:101C600040F8043B51F8043B40F8043B51F8043B76
:101C700040F8043B51F8043B40F8043B51F8043B66
:101C800040F8043B51F8043B40F8043B51F8043B56
:101C900040F8043B51F8043B40F8043B51F8043B46
:101CA00040F8043B51F8043B40F8043B403ABDD2B5
:101CB000303211D351F8043B40F8043B51F8043B57
:101CC00040F8043B51F8043B40F8043B51F8043B16
:101CD00040F8043B103AEDD20C3205D351F8043BE6
:101CE00040F8043B043AF9D2043208D0D2071CBFB2
:101CF00011F8013B00F8013B01D30B8803806046DB
:101D0000704700BF082A13D38B078DD010F0030350
:101D10008AD0C3F10403D21ADB071CBF11F8013BC0
:101D200000F8013B80D331F8023B20F8023B7BE70F
:101D3000043AD9D3013A11F8013B00F8013BF9D23A
:101D40000B7803704B7843708B78837060467047D4
:101D5000F0B4860746D0541E002A3CD0CAB20346CF
:101D600002E014F1FF3436D303F8012B9D07F8D1BC
:101D7000032C29D9CDB245EA05250F2C45EA0545A6
:101D800033D9A4F11006360903F1200707EB061733
:101D900003F1100242E9045542E902551032BA42F9
:101DA000F8D1721C14F00C0F03EB021204F00F06B2
:101DB00013D0331F23F003030433134442F8045BAE
:101DC0009342FBD106F003042CB1C9B21C4403F8C2
:101DD000011B9C42FBD1F0BC704734461346002CDB
:101DE000F3D1F8E714460346C2E71A462646E0E771
:101DF00000293CD038B551F8043C0C1F002BB8BF6B
:101E0000E418054601F0C4FF234B1A682AB1A24228
:101E10000DD921686018824223D0626028461C6078
:101E2000BDE8384001F0B6BFA34203D81A46536854
:101E3000002BF9D111685018A04219D024D821687C
:101E40006018834206D0636054602846BDE838407D
:101E500001F0A0BFD3E90003014463602160546036
:101E6000F3E7D2E90002014462602160D6E77047DF
:101E700020680144501883421160E6D1D3E9000381
:101E8000014453601160E0E70C232B602846BDE855
:101E9000384001F07FBF00BFF4020020F8B5CD1C30
:101EA00025F0030508350C2D38BF0C25002D0646FE
:101EB00033DBA94231D82A4F01F06AFF3A6852B1A8
:101EC00013685B1B04D43FE023685B1B29D52246C3
:101ED0005468002CF8D1796800293BD02946304657
:101EE00000F07EFD431C28D0C41C24F00304A04253
:101EF00005D0211A304600F073FD01301DD0256059
:101F0000304601F047FF04F10B0020F00700231DCD
:101F1000C21A01D01B1AA350F8BD0C223260002057
:101F2000F8BD0B2B05D8A242636811D05360E7E7D8
:101F3000144623601C442560E2E70C2330463360DE
:101F400001F028FF0020F8BD0B2BF1D85368144690
:101F50003B60D5E7304600F043FD7860BEE700BF48
:101F6000F40200202DE9F04757EC106B84B0002FED
:101F7000894692461946DDE90D545EDB0023662D45
:101F80000B7018D0462D16D025F02003452B36D0E7
:101F900003AA02ABCDE9003202210C9B4A4647EC72
:101FA000106B00F02FFF672D804636D11AF0010F1D
:101FB00035D1039B1CE003AA02ABCDE9003203211B
:101FC0000C9B4A4647EC106B00F01CFF804600EB70
:101FD000090598F80030302B34D00C9B1B681D4449
:101FE000304639460022002304F0CEFAD0B12B4609
:101FF000A3EB08034046236004B0BDE8F08703A9C3
:1020000002AB09F10109CDE900314A460C9B0221DE
:1020100047EC106B00F0F6FE8046472DC6D008EB6B
:102020000905DDE7039B9D42E2D930215A1C03924A
:102030001970039BAB42F9D3DAE707F100431F465F
:102040002D239CE7002200233046394604F09CFAF9
:102050000028C2D10C9AC9F101031360BFE700BF89
:10206000F0B400290446BABF49422D232B23092985
:1020700004F8022B82B043702DDD0DF107063546C2
:10208000194F01E01546194687FB0132CB17C3EB08
:10209000A20303EB8302A1EB42023032632905F86D
:1020A000012C05F1FF32EDDC3033A91EDBB28E428C
:1020B00002F8013C0BD9214601E012F8013B01F87E
:1020C000013BB242F9D10DF109035D1B2C44201AEA
:1020D00002B0F0BC704730313023041DC1708370F2
:1020E000201A02B0F0BC7047676666662DE9F04FB3
:1020F0008DB00C46DDF8588016461F46054601F0A7
:10210000EFFD03680693184600F07AFD00230A935A
:10211000D8F800300790073323F0070393ED007BD6
:1021200008338DED047BD4F800B094F818A0C8F8FB
:102130000030DDE9042323F000499046104684ED89
:10214000127B49464FF0FF32AF4B04F04FFA40B9D3
:10215000404649464FF0FF32AB4B04F029FA0028C5
:102160007BD0DDE9040102460B4604F03FFA00286B
:1021700040F035826168481C4BF480622CD0BAF183
:10218000670F64D0BAF1470F61D0002322600AA81C
:10219000039309AB02900093CDF804A00DF1230343
:1021A0009DED040B2846FFF7DDFE8046BAF1650F72
:1021B000099B33D8013B1946524604F1500009935C
:1021C000FFF74EFF0A9A1318012A8146236140F354
:1021D0007E810133236133E00621616000232260A8
:1021E0000AA8039309AB02900093CDF804A00DF167
:1021F00023039DED040B2846FFF7B4FE0AF0DF032E
:10220000472B8046D2D1099BD91C80F2E280AAF1EB
:10221000020A5FFA8AFABAF1650FCBD9BAF1660FF2
:1022200000F0DE800A9A9A4240F3E580002BD4BF8A
:10223000C3F1020101210A442261A3654FF00009A4
:102240009DF823300BB32D2384F843301DE0002983
:1022500040F0138101216160C0E7DDE90401002243
:10226000002304F09BF910B12D2384F84330674814
:1022700067492BF0040203232260BAF1470F94BF91
:102280008046884623614FF00009009733460BAA29
:102290002146284600F0C2F9013024D023685805B1
:1022A0002CD42369424631462846B84701301AD01B
:1022B00022680B98E36892071AD51A1A002A17DDCC
:1022C00004F119094FF0000804E0E3680B981A1AAA
:1022D00042450DDD01234A4631462846B8470130C4
:1022E00008F10108F1D14FF0FF300DB0BDE8F08FDB
:1022F0009842B8BF18460DB0BDE8F08FBAF1650F2F
:1023000033D900220023D4E9120104F03DF900285A
:1023100000F0828001233F4A31462846B847013009
:10232000E1D0DDE909239A4202DB2268D107C0D55A
:10233000DDE9062331462846B8470130D3D00A9B51
:10234000012BB5DD04F11A094FF0000803E00A9BE8
:10235000013B4345ACDD01234A4631462846B84798
:10236000013008F10108F2D1BDE70A9A012A40F3D1
:102370009A800123424631462846B8470130B2D000
:10238000DDE9062331462846B8470130ABD00022AC
:102390000023D4E91201DDF828A004F0F5F80028A4
:1023A00000F09080BAF1010F40F3888004F11A0A1E
:1023B0004FF0000803E00A9B013B43457EDD01230B
:1023C000524631462846B847013008F10108F2D19B
:1023D00089E7626893423FF71AAF4FF0670A21E737
:1023E000002B626878DD2361002A00F0A6800132AC
:1023F0001A44226121E722682361D2077FF51DAFCD
:102400005A1C226119E700BFFFFFEF7F80A8020876
:1024100084A8020890A80208099B002B63DD0A9B90
:10242000D4F858A05345A8BF5346002B9B4608DD5F
:10243000424631462846B84701303FF454AFD4F8FD
:1024400058A02BEAEB7BAAEB0B03002B40F3828016
:1024500004F11A034FF000099A4604E0A36DA3EBC0
:102460000B024A4575DD0123524631462846B847DE
:10247000013009F10109F1D135E7002322600AA8F2
:10248000039309AB02900093CDF804A00DF1230350
:102490009DED040B2846FFF765FD099BD91C80467E
:1024A000FFF6B5AE95E7D9073FF563AF4246012386
:1024B00031462846B84701303FF415AF4B4604F18A
:1024C0005002F0E60AF1FF3308F10102F0E722685A
:1024D000D2077FF5B5AE7CE6002A33D12168C90763
:1024E00030D40122A8E60123494A31462846B8479C
:1024F00001303FF4F8AEDDE90923134324D0DDE9D0
:10250000062331462846B84701303FF4ECAE099B1C
:10251000002B79DA04F11A0A4FF0000903E0099B55
:102520005B424B4570DD0123524631462846B84791
:10253000013009F10109F2D1D5E62168C8077FF51C
:102540007CAE54E7023277E62268D3077FF5B1AE5E
:10255000D5E79A46DDE909218A4202DB2368D807DC
:1025600009D5DDE9062331462846B84701303FF456
:10257000BAAEDDE909215245A1EB0203D4BFA1EBBC
:102580000A099946B9F1000F0BDD08EB0A024B4628
:1025900031462846B84701303FF4A5AEDDE90923AE
:1025A0009B1A29EAE979A3EB0903002B7FF780AE98
:1025B00004F11A0A4FF0000807E0DDE909239B1A2D
:1025C000A3EB090343457FF773AE0123524631461F
:1025D0002846B847013008F10108EED183E6059B93
:1025E0000C490D4A002BBCBF2D2384F843302BF03F
:1025F000040323600323BAF1470F94BF8846904633
:1026000023614FF0000940E642460A9B4BE600BFBB
:1026100090A8020888A802088CA802082DE9F047B3
:102620000C4691460A698968DDF820808A42B8BF65
:102630000A46C9F8002094F8431006461F4611B117
:102640000132C9F80020236899065CD5D9F800202A
:102650000232C9F80020236813F0060F19461DD175
:10266000E1688A1A002AD8BF194617DD04F1190A51
:10267000002505E0E368D9F800209B1AAB420CDD89
:102680000123524639463046C047013005F1010565
:10269000F0D14FF0FF30BDE8F087216894F8433067
:1026A000003318BF01238A060AD5E1185A1C3020CE
:1026B00081F84300224494F8451082F84310023315
:1026C00004F1430239463046C0470130E1D0236867
:1026D000A268216903F00603042B1DD08A4226DD7F
:1026E0004FF00009521A91441A34002501E04D457B
:1026F0001DDA0123224639463046C047013005F134
:102700000105F4D1C5E713F0060F13D094F8433058
:10271000003318BF0123D3E7D9F80000E3688A42E9
:10272000A3EB000323EAE379DCDC002BDCDC0020F4
:10273000BDE8F087E168D9F800208A1A002AD8BFDE
:10274000194693DCAAE700BF2DE9F0430C46097E49
:1027500085B06E29064617460C98984604F1430E3C
:102760006DD039D9732900F0F68044D9752900F06D
:102770000481782940F0118178232268DFF858C25B
:1027800084F845300168150651F8043B016040F1BA
:10279000A180D10744BF42F020022260002B00F04C
:1027A00093801022002184F843106068A060002804
:1027B000C0F2C880216821F004012160002B40F0A4
:1027C000A380002840F0C0807546082A00F0AC8045
:1027D000AEEB0503236141E0632900F0E5801AD8E0
:1027E000002938D0582940F0D88084F84510226854
:1027F000DFF8E8C1C6E76F2900F0BF80702940F01C
:10280000CC802268DFF8D0C142F020027823226019
:1028100084F84530B6E7642902D0692940F0BD80CC
:1028200022680368110603F1040557D5196805608D
:102830000B46002959DBDFF8A4C10A22B5E703687B
:10284000226861691D1D056015061B6802D45006CB
:1028500000F1BD801960002375462361CDF800802A
:102860003B4603AA21463046FFF7D8FE013020D070
:102870002A46236939463046C047013019D02268BC
:102880000398E368920719D51A1A002A16DD04F195
:102890001909002504E0E36803981A1AAA420DDD1D
:1028A00001234A4639463046C047013005F101054B
:1028B000F1D14FF0FF3005B0BDE8F0839842B8BFCA
:1028C000184605B0BDE8F083226822F0200222609D
:1028D000102267E7500648BF9BB25AE75106A5D5BC
:1028E000B3F9003005601946A3E76168A1602D20A7
:1028F0000029C3F1000384F8430002DB22F0040244
:102900002260DFF8D8C00A22754600E00B46B3FB10
:10291000F2F102FB113093421CF8000005F8010DA2
:10292000F4D2082A7FF454AF2368DB077FF550AF59
:10293000626823699A423FF74BAF302305F8013CA8
:10294000013D45E7002BDFD19CF8003084F8423090
:1029500004F1420539E703686268191D01601D68CA
:102960000021284601F0C4F9002832D0401B6060E5
:102970002061002384F8433070E72268036812F076
:10298000800F03F104051AD01B6805606F290CBF86
:1029900008220A22DFF844C004E7012384F8421029
:1029A000236104F14205E4E703681A68191D012355
:1029B000016004F1420584F842202361D9E712F056
:1029C000400F0DBF1B6805601B880560DEE719809E
:1029D00041E76068CCE700BFA8A8020894A80208F5
:1029E00038B5074C002305460846236005F028F853
:1029F000431C00D038BD2368002BFBD02B6038BDB2
:102A00006C26002010B580210446FFF747FA606469
:102A100040B1031F00227C3043F8042F8342FBD1D6
:102A2000002010BD4FF0FF3010BD00BF436C0BB154
:102A300000207047E6E700BF1F2970B5054608D89B
:102A4000436C16460C464BB153F8240043F82460FF
:102A500070BD162202604FF0FF3070BDFFF7D2FF4D
:102A600008B96B6CF0E74FF0FF3070BD1F2938B527
:102A700021D8426C05460C466AB152F8213053B158
:102A8000012B16D0591C10D00025204642F82450A6
:102A90009847284638BD284600F070F8224601467F
:102AA0002846BDE8384000F055B8162303600120E1
:102AB00038BD002038BD162303604FF0FF3038BD0D
:102AC0001F2921D838B5436C05460C4683B153F80D
:102AD000242003EB84034AB1511C10D0012A0CD0EE
:102AE000002520461D609047284638BD012038BD8E
:102AF000FFF788FF28B96B6CE9E7032038BD022097
:102B000038BD4FF0FF3038BD4FF0FF30704700BF89
:102B1000024B01461868FFF7A9BF00BF0400002060
:102B2000024B0A4601461868FFF786BF04000020E2
:102B3000034B1868436C0BB10020704762E700BF7D
:102B400004000020024B01461868FFF7B9BF00BF20
:102B50000400002038B50B46074C054611461846C0
:102B60000023236004F0E4FE431C00D038BD23683A
:102B7000002BFBD02B6038BD6C26002004F0D0BEAB
:102B80000CB470B59CB020AC0B4E54F8042B0291E1
:102B9000234606916FF0004502A901940795CDE9FF
:102BA000045601F025FF029B00221A701CB0BDE8FC
:102BB000704002B0704700BF0802FFFF0EB430B58E
:102BC0009CB01FAB0C4C0D4D53F8042B01930146E8
:102BD00002910691206802A96FF000440794CDE9A4
:102BE000044501F005FF029B00221A701CB0BDE8ED
:102BF000304003B0704700BF040000200802FFFF10
:102C000090F800F06DE9024520F007016FF0000C2C
:102C100010F0070491F820F040F049804FF00004D4
:102C20006FF00700D1E9002391F840F000F10800AF
:102C300082FA4CF2A4FA8CF283FA4CF3A2FA8CF3E7
:102C40004BBBD1E9022382FA4CF200F10800A4FA4E
:102C50008CF283FA4CF3A2FA8CF3E3B9D1E90423A2
:102C600082FA4CF200F10800A4FA8CF283FA4CF3D9
:102C7000A2FA8CF37BB9D1E9062301F1200182FA93
:102C80004CF200F10800A4FA8CF283FA4CF3A2FA99
:102C90008CF3002BC6D0002A04BF04301A4612BAA7
:102CA000B2FA82F2FDE8024500EBD2007047D1E9AA
:102CB000002304F00305C4F100004FEAC50514F039
:102CC000040F91F840F00CFA05F562EA05021CBF0A
:102CD00063EA050362464FF00004A9E70000000024
:102CE0002DE9F04F03690F69BB4283B0C0F28680C3
:102CF000013F01F1140600F1140A56F827305AF882
:102D00002720BC000133009406EB04099A42544486
:102D1000B2FBF3F801943AD300252A46B646D446CE
:102D20005EF8044BDCF800301FFA84FB08FB0B55FF
:102D30004FEA154B240C08FB04B4ADB2551BA2B2EC
:102D4000C2EB134215FA83F302EB23429BB243EA30
:102D50000243F1454FEA14454CF8043B4FEA224246
:102D6000DED2009B5AF803308BB9019A131F9A45A3
:102D70000CD252F8043C4BB9A2F1080302E01A68E5
:102D8000043B1AB99A4507F1FF37F8D307610446A7
:102D900001F0E0FA00282DDB08F10108504600237D
:102DA00056F8041B05688AB29A1A0B0C12FA85F2BF
:102DB000C3EB154303EB224392B242EA0342B1450F
:102DC00040F8042B4FEA2343EAD25AF827200AEBB3
:102DD00087037AB91A1F92450BD253F8042C42B9D3
:102DE000083B02E01A68043B1AB99A4507F1FF371D
:102DF000F8D32761404603B0BDE8F08F002003B050
:102E0000BDE8F08F2DE9F04F55EC104B97B0466AB6
:102E1000209F039182460A920793CDE90045002E38
:102E200000F03683316851B172684A6001239340E3
:102E30008B6000F0F1FFDAF8243000221A602E1EB9
:102E4000B4BF012300233B60774BBCBF26F0004694
:102E50000196B34300F0B0809DED007B002200237B
:102E600051EC170B8DED047B03F08EFB054678B11A
:102E7000079A01231360219B002B00F023836B4BE7
:102E8000219A1360013B0293029817B0BDE8F08FBE
:102E9000DDE9047814AA15A948EC107B504601F02E
:102EA0008DFB340D834640F09D80DDE914542C44A5
:102EB00004F23243202B40F3CD83C3F140039E4004
:102EC000009B04F2124023FA00F0304303F07AF83A
:102ED000A1F1F87301210246013C0E9110461946FA
:102EE0000022534B02F030FF49A3D3E9002303F043
:102EF000E3F849A3D3E9002302F028FF0646204661
:102F00000F4603F06FF846A3D3E9002303F0D4F88B
:102F100002460B463046394602F018FF06460F4679
:102F200003F07AFB0022814600233046394603F045
:102F300035FB002840F0B9822C1BB9F1160F04F1C3
:102F4000FF3800F299823B4B03EBC903D3E900231E
:102F5000DDE9040103F022FB002871D00023B8F161
:102F6000000F09F1FF390D93C0F28C820023099301
:102F7000B9F1000F6ADA099BCDF81890A3EB0903A9
:102F80000993C9F100030C93039BDAF82400092B81
:102F90004FF0000964D8052B40F35A83043B039398
:102FA0000024039B023B032B00F26486DFE813F04E
:102FB000660463043E045604079A42F20F731360DA
:102FC000009BC6F31306334318D1219B002B00F05E
:102FD0006086194B02930833219A0298136017B048
:102FE000BDE8F08FC8F3130141F07F530E953A46C8
:102FF000A4F2FF3443F44013149D6FE7219B002B90
:1030000040F003840D4B02933EE700BFAFF3008016
:1030100061436F63A787D23FB3C8608B288AC63FDE
:10302000FB799F501344D33F0000F07F91A8020822
:103030000000F83FE04E0108BCA80208C8A802083A
:10304000B8F1000FC0F2A3840D90099000230C93F7
:10305000039BCDF81890092BC844DAF824009AD9BC
:10306000002301240393CDE90A344FF0FF33089382
:103070000021089B41600F93504600F08DFE0290A6
:10308000002800F0FF85DAF82430029A1A60089BC5
:103090000E2B00F20A81002C00F00781069900290E
:1030A00040F37784B14B01F00F0203EBC20393EDC1
:1030B000007B0C11E2068DED107B40F11484AC4BCB
:1030C000DDE90401D3E9082303F020F9CDE900018B
:1030D00004F00F0403267CB1DDE91001A44DE307E1
:1030E00004D5D5E9002302F0E7FF0136641005F1AD
:1030F0000805F4D1CDE91001DDE90001DDE9102377
:1031000003F004F9CDE900010D9B53B1DDE9004561
:103110000022984B2046294603F040FA002840F050
:103120003585304602F05EFFDDE9002302F0C4FF82
:10313000914B002202F00AFE089B0446A1F1507553
:10314000002B00F00884069B1293089B1093DDE986
:1031500000673946304603F05FFA009002F042FF04
:1031600002460B463046394602F0EEFD7F4B009A90
:103170000F461099064603EBC1030B9802993032B3
:10318000CDE90045D5B24C1C53E90223002800F0DC
:10319000A1840020794903F0B9F8DDE9002302F0A9
:1031A000D3FD029B32461D703B46CDE9000103F082
:1031B00013FA002840F0DE8432463B4600206D4979
:1031C00002F0C2FD02460B46DDE9000103F004FAFD
:1031D000002840F03D85109B012B62D0029ACDF86B
:1031E00040901344CDF84C80DDE90089CDF800B063
:1031F000D3469A460EE032463B4600205D4902F037
:10320000A3FD42464B4603F0C9F9002840F0FC8478
:1032100054453FD0404649460022594B02F04CFFEE
:103220000022574B804689463046394602F044FF1B
:103230000F46064603F0F0F9054602F0D3FE0246BB
:103240000B463046394602F07FFD3035EDB204F8CA
:10325000015B42464B4606460F4603F09FF90028A5
:10326000C9D0129BDA460133DDF800B00693594607
:10327000504600F0D1FD00232370079B1A46069BA1
:103280001360219B002B3FF4FFAD02981C6017B028
:10329000BDE8F08FDA46DDF84090DDF84C80DDF8CF
:1032A00000B0DDE90434CDE90034159B002BC0F2F9
:1032B000C680069A0E2A00F3C2802C4B03EBC20391
:1032C000D3E900890A9B002B17DA089F002F14DC32
:1032D00040F05A8300222B4B4046494602F0ECFE58
:1032E000DDE9002303F06EF9002800F0D283089F87
:1032F0003D460A9B029CDB43DEE2DDE90045424697
:103300004B462046294603F001F803F085F90646AE
:10331000009002F067FE42464B4602F0CDFE0246A8
:103320000B4620462946029C3546303502F00CFDFE
:10333000069E04F8015B089D0136012D02460B46EE
:10334000069652D000220E4B02F0B6FE0022002359
:1033500006460F4603F018F9002888D1CDF800B0D2
:103360000125DDF820B0CDF80CA01AE0E04E0108F0
:10337000D04F01080000F03F00001C400000E03F7B
:1033800000002440000014400022BF4B02F094FED5
:103390000022002306460F4603F0F6F8002840F00E
:1033A0006D8342464B463046394602F0AFFF03F08C
:1033B00033F9824602F016FE42464B4602F07CFE8E
:1033C00002460B463046394602F0BEFC01350AF192
:1033D0003006AB4502460B4604F8016BD4D1DDF84C
:1033E00000B0CDF800A0DDF80CA01046194602F0A0
:1033F000ADFC42464B4606460F4603F0EDF860B979
:1034000042464B463046394603F0BEF800283FF4AA
:103410002EAF009BD9077FF52AAF14F8015C029A02
:10342000631E04E09A4200F0D78313F8015D392D42
:1034300003F10104F6D06A1CD2B21A7017E70B9A96
:10344000002A45D0039A012A40F36382089B5E1E3E
:103450000C9BB342C0F241829E1B089B002BC0F222
:103460001383099A14461A4498440992012150463C
:1034700000F0EEFD05462EE00123B8F1000F0D939C
:10348000BFF674ADC4F1010309934FF000086FE576
:103490001020FEF7B3FBCAF82400002800F0DD83FB
:1034A000C0E901660660C660C9E4484602F09AFDBC
:1034B00032463B4603F068F800287FF43DAD09F141
:1034C000FF3939E5714B0293029817B0BDE8F08FD0
:1034D0000C9E099C0B9D002C0CDDB8F1000F09DD42
:1034E0004445099A2346A8BF4346D21A0992E41AD2
:1034F000A8EB03080C9BD3B10B9B002B00F07E8143
:10350000002E10DD29463246504600F05DFE5A4638
:1035100001460546504600F0B1FD59460746504663
:1035200000F07AFCBB460C9B9A1B40F0688101219D
:10353000504600F08DFDB9F1000F074600F3908072
:10354000039B012B40F3668100260120B9F1000F97
:1035500040F09180404410F01F0077D0C0F120036C
:10356000042B40F39A83C0F11C00099B0344099388
:1035700004448044099B002B05DD59461A465046F9
:1035800000F084FE8346B8F1000F05DD394642465F
:10359000504600F07BFE07460D9B002B40F0138148
:1035A000089B002B40F3FA800B9B002B7ED1069BDF
:1035B00001330693029CDDF82080012607E059467E
:1035C00000230A22504600F04DFC0136834639465E
:1035D0005846FFF785FBB04500F1300004F8010BB9
:1035E000EDDC03464FF00009594601225046009396
:1035F00000F04CFE3946834600F0ACFE002814F87B
:10360000012C40F37881631E029904E0994200F096
:103610008D8113F8012D392A03F10104F6D001320E
:103620001A703946504600F0F7FB002D3FF41FAEEC
:10363000B9F1000F05D0A94503D04946504600F026
:10364000EBFB2946504600F0E7FB10E61C208CE718
:103650000124A6E4C3F12006009B03FA06F035E43A
:1036600001464A46504600F0AFFD039B012B07463A
:1036700040F3B98100263B6907EB8303186900F02A
:1036800097FCC0F1200065E70000244090A80208E4
:10369000294600230A22504600F0E4FB0F9B002B32
:1036A000054640F3CC82CDF818800893002C00F337
:1036B0000D81002E40F0CB81A846009B0399029E0D
:1036C00003F001020B920A430A92089A731E1A44ED
:1036D000099239465846FFF703FB294600905846A1
:1036E00000F038FE424681463946504600F04EFE14
:1036F000009BC26804463033002A41D10146584637
:10370000089300F027FE21460490504600F084FB09
:10371000049A089B1AB90A99002900F07C82B9F131
:10372000000F06F10104C0F27581039941EA09090D
:103730000B9951EA090100F06D81002A00F3AB8179
:10374000099A3370B24200F0B281594600230A222E
:10375000504600F087FB4545834629464FF000035D
:103760004FF00A02504613D000F07CFB414605465C
:1037700000230A22504600F075FB26468046A8E743
:1037800001465046049300F047FB0122049BC6E724
:1037900000F068FB2646054680469AE7039B022B0D
:1037A00073DC0B9B002B81D139465846FFF798FA02
:1037B000069A029C00F130030132069204F8013BA4
:1037C0004FF0000910E73946584600F0C3FD0028C5
:1037D000BFF6E6AE594600230A22504600F042FBEF
:1037E000069B03F1FF380B9B8346002B7FF450AF01
:1037F0000F9B002B40F31C820893DBE60C9A594682
:10380000504600F0E1FC834691E6AC4B0293033353
:10381000FFF7E2BBDDE9001200297FF495AEC2F3A9
:103820001303002B00F0EA80009E8EE601230B9329
:103830000A9D002D5ADD0F9508950021172D416036
:103840007FF71AAC012204235B0003F11406AE4299
:10385000114602F10102F7D941600DE401230B93F7
:103860000A9B069A13440F930133012B1D460893BC
:10387000B8BF0125E1E700230B93F1E700230B9389
:10388000D6E70F9B0893CDF81880089B002B7FF498
:1038900030AD39460522504600F0E4FA01460746AD
:1038A000584600F057FD00287FF723AD029C069B89
:1038B000312204F8012B0133013339465046069377
:1038C00000F0AAFA002D7FF4BCAED0E429462246CF
:1038D000504600F0DBFC0546EBE60C9B0C96F31A19
:1038E00099440026B9E50226FFF7F5BB01230A93A8
:1038F0000893FFF7BDBB03D1009BDB073FF583AE09
:10390000631E01E013F8012D302A03F10104F9D000
:1039100087E60E9A002A00F0328103F23343099AB7
:103920000C9E14461A44984409929FE5069A013267
:103930000692029A3123137073E6304602F052FB6E
:10394000DDE9002302F0B8FB00225D4B02F0FEF936
:103950000446A1F1507500225A4BDDE9000102F046
:10396000F3F922462B4606460F4602F035FE0028A4
:1039700040F08E80224605F100433046394602F081
:103980000DFE00283FF48DAC00273D46B1E40D90BC
:1039900078E500F0F880069B5C424B4B04F00F0288
:1039A00003EBC203D3E90023DDE9040102F084FB49
:1039B0002411CDE9000100F0E680444D00230226E9
:1039C000E70705D5D5E9002302F076FB0136012390
:1039D000641005F10805F3D1002B3FF495ABCDE958
:1039E0000001FFF791BB009B002B7FF443AEDDE9A4
:1039F0000012C2F31303002B7FF43CAE344E16408A
:103A0000002E3FF4A2AD099B0133099308F1010890
:103A100001269AE50699002A01F10101069112DDBD
:103A2000594601225046039300F030FC3946834644
:103A300000F090FC0028039B40F3E080392B00F05D
:103A4000D280009B3133A94633704546E9E5696869
:103A5000504600F0A1F90446002800F004812B69CB
:103A600002339A0005F10C010C30FEF7D7F821461D
:103A70000122504600F00AFC80461EE6DDF800B048
:103A8000DDF80CA0FFF7F3BBDDE908239C1AEDE499
:103A900000273D460AE7069A392B02F101020692F9
:103AA00000F0A1800133A94633704546B9E5069A76
:103AB0000132A9460692454696E500BFC8A802080D
:103AC00000001C4000001440E04E0108D04F0108E7
:103AD0000000F07FDDE9000102F0EEFA029B1D70AC
:103AE000109B012BCDE9000123D0109B029ACDF849
:103AF00040901344C14698460022714B30463946E7
:103B000002F0DAFA0F46064602F086FD054602F09C
:103B100069FA303502460B463046394602F014F950
:103B200004F8015B444506460F46E5D1C846DDF87A
:103B30004090644B0022DDE9000102F007F93246B3
:103B40003B4602F02BFD002852D1DDE90023002086
:103B50005C4902F0F9F832463B4602F03DFD002890
:103B60003FF49FAB00E0144614F8013C302B04F105
:103B7000FF32F8D0129B01330693FFF778BB149BFA
:103B8000C3F13603CBE60226FFF7BEBA089B002B33
:103B90003FF4D3AE0F9F002F7FF783AB0022484B3B
:103BA0002046294602F088FA04460D46701CCDE9ED
:103BB000004502F017FA22462B4602F07DFA424BEE
:103BC000002202F0C3F8069B1097013B0446A1F1C6
:103BD00050751293FFF7BBBA069A01320692312252
:103BE0001A70FFF744BB3922A946327045460AE5F0
:103BF000129B0133069314F8015C10E47FF423AFA9
:103C0000DA077FF520AF19E7129B0133DA460693F6
:103C1000DDF800B003E4069A392B02F101020692A6
:103C200006F10104DFD0B9F1000F3FF70AAF0AE750
:103C3000039B022B3FF725AECDF81880B4E5039B1C
:103C4000022B3FF71EAE0F9BCDF8188008932DE591
:103C5000129B01330693FFF7E2BB02461B4B1C4845
:103C6000EA2100F0FFFF02461A4B194840F2EA2110
:103C700000F0F8FF002444602146504600F08CF824
:103C8000029078B9134B124800224FF4D57100F01E
:103C9000E9FF114B0293FFF7F7B83FF46BACC0F1AB
:103CA0003C0062E4DAF82430029919604FF0FF32E8
:103CB000012308920A940F920B93FFF7F6BA00BF04
:103CC000000024400000E03F00001C40CCA8020897
:103CD000E4A8020818A90208BCA80208F03070473E
:103CE00000487047580100200048704758010020E4
:103CF00001F0FF01102A2BDB10F0070F08D010F89D
:103D0000013B013A8B422DD010F0070F42B3F6D1A0
:103D1000F0B441EA012141EA014122F007047FF0B9
:103D200000070023F0E80256083C85EA010586EA10
:103D3000010685FA47F5A3FA87F586FA47F6A5FA4C
:103D400087F68EB9EED1F0BC01F0FF0102F0070258
:103D500032B110F8013B013A83EA010313B1F8D103
:103D60000020704701387047002D06BF35460338E4
:103D7000073815F0010F07D1013015F4807F02BF1D
:103D8000013015F4C03F0130F0BC0138704700BF6E
:103D9000704700BF704700BF70B5446A06460D46C5
:103DA0005CB1E368A3B153F82500E8B1026843F8B9
:103DB00025200023C0E9033370BD1020FDF71EFF4E
:103DC00004467062E8B10023C0E901330360C360B8
:103DD00021220421304600F0FBFC736AE060DB68BE
:103DE000002BE0D1002070BD012101FA05F4621D15
:103DF0003046920000F0ECFC0028F3D0C0E90154FA
:103E0000D7E70246024B0348662100F02BFF00BFB4
:103E1000CCA802082CA9020830B5456A83B0044634
:103E200055B139B1636A4A68DB6853F8220008600B
:103E300043F8221003B030BD10200191FDF7DEFEE3
:103E40000199606220B1C0E901550560C560E8E7ED
:103E50000246024B02488A2100F004FFCCA8020867
:103E60002CA90208F0B50C6983B00D46064601F195
:103E7000140C0027DCF8000081B202FB0133190C9E
:103E8000000C02FB00109BB2013703EB0043BC4265
:103E90004CF8043B4FEA1043ECDC3BB1AA68A24269
:103EA00007DD05EB8402013453612C61284603B021
:103EB000F0BD6968019330460131FFF76DFF019B4A
:103EC0000746A0B12A6901930232920005F10C0164
:103ED0000C30FDF7A3FE294630463D46FFF79CFF18
:103EE00005EB8402019B536101342C61DEE702463D
:103EF000024B0348B52100F0B5FE00BF18A9020827
:103F00002CA902082DE9F843264C089E1D460833CB
:103F100084FB034C092D4FEAE373904607460C4699
:103F2000C3EB6C0236DD012300215B009A4201F1F4
:103F30000101FADC3846FFF72FFF68B30123B8F11F
:103F4000090FC0E9043613DC0A344FF0090845456F
:103F50000CDDA5EB0805254414F8013B0146303B78
:103F60000A223846FFF77EFFA542F5D1BDE8F88367
:103F700004F109094E46444416F8013B0146303B22
:103F80000A223846FFF76EFFB442F5D1A8F10804C3
:103F90004C44DCE70021CDE70246034B0348CE2129
:103FA00000F060FE398EE33818A902082CA9020837
:103FB000020C12040346CAB90304102013F07F4F09
:103FC00004BF1B02083013F0704F04BF1B01043004
:103FD00013F0404F04BF9B000230002B05DB13F0B1
:103FE000804F00F1010008BF202070470020E5E766
:103FF000036813F00702014607D0DA0720D49807B8
:1040000022D55B080B600120704798B2B0B91B0C39
:10401000102013F0FF0F04BF1B0A08301A0704BF5B
:104020001B0904309A0704BF9B080230DA0703D447
:104030005B0800F1010005D00B6070471046E8E70F
:1040400000207047202070479B080B6002207047BB
:1040500010B50C460121FFF79FFE024618B101235F
:10406000C0E9043410BD034B03484FF4A07100F0C5
:10407000F9FD00BF18A902082CA902082DE9F04F8C
:104080000E691769BE4283B00C46154605DB3A46F9
:104090002B4637460D4616461C46D5E9011307EB5D
:1040A00006084345B8BF0131FFF776FE00900028AF
:1040B0007FD0009B03F1140A0AEB8809CA4505D298
:1040C0005346002143F8041B9945FBD804F1140E14
:1040D0000EEB860B05F11403DE4503EB870753D285
:1040E000CDF80480984605E0090C28D1F3450AF183
:1040F000040A47D95EF8041B8EB2002EF4D0454660
:104100005446002355F8041B20688AB21FFA80FC2D
:1041100006FB02C2090C000C134406FB010202EB71
:1041200013429BB243EA0243AF4244F8043B4FEAD6
:104130001243E7D823605EF8041C090CD6D0DAF8E5
:10414000003040461A4654464FF0000C0588120CC9
:1041500001FB052294449BB243EA0C4344F8043B20
:1041600050F8043B22681B0C95B201FB035303EB90
:104170001C4387424FEA134CE8D8F34523600AF109
:10418000040AB7D8DDF80480B8F1000F0BDD59F848
:10419000043CA9F104091BB105E059F8043D13B929
:1041A000B8F10108F9D10098C0F8108003B0BDE85B
:1041B000F08F0246024B034840F25D1100F052FDC1
:1041C00018A902082CA902082DE9F04312F00303F4
:1041D00083B0144607462DD10E46A4101CD07A6A2F
:1041E0008AB39568002D39D0E3074FF0000906D453
:1041F000641011D0286898B10546E307F8D5314618
:104200002A463846FFF73AFF314680463846FFF7E0
:1042100003FE64104646EDD1304603B0BDE8F0839E
:104220002A4629463846FFF729FF2860C0F8009043
:104230000546E2E7013B124A52F823200023FFF72C
:1042400011FE0646C9E71020FDF7D8FC0246786249
:1042500080B10023C0E901330360C36040F27121E3
:1042600038460192FFF7F4FE019A0023906005465C
:104270000360B9E7034B04484FF4D77100F0F2FC38
:10428000D04E0108CCA802082CA902082DE9F0475D
:104290000E690D464FEA621AD1E901135644741CA7
:1042A0009C429146074604DD5B009C4201F10101FE
:1042B000FADC3846FFF770FD804600283FD0BAF19F
:1042C000000F00F114000EDD0AF1050A4FEA8A0A18
:1042D00008EB0A010346002243F8042B8B42FBD172
:1042E000AAF1140A5044296905F1140319F01F09B1
:1042F00003EB810C1BD0C9F1200E0022196801FAD2
:1043000009F1114340F8041B53F8042B9C4522FA91
:104310000EF2F3D80260002A18BF26463846C8F8C5
:1043200010602946FFF778FD4046BDE8F087043865
:1043300053F8042B40F8042F9C45F9D8EEE70246C9
:10434000024B034840F2D91100F08CFC18A9020876
:104350002CA9020830B40B6905460069C01A10D1B7
:104360009B001435143119442B4401E09D4208D2BE
:1043700053F8044D51F8042D9442F7D003D24FF076
:10438000FF3030BC7047012030BC70472DE9F84346
:1043900016460B691269A3EB0208B8F1000F0D462F
:1043A00067D1920001F1140706F11401BB18114402
:1043B00001E09F4261D253F8042D51F8044DA2420E
:1043C000F7D050D36968FFF7E7FC00285FD02F696A
:1043D0003369C0F80C8006F11402143505EB870C24
:1043E00002EB830E00F11406002100E0264652F88D
:1043F000044B55F8048B1FFA84F911FA88F3210C49
:10440000A3EB0903C1EB184101EB234134469BB2F6
:1044100043EA014396454FEA214144F8043BA8464C
:10442000E4D8AC4516D9264658F8042B11FA82F385
:10443000191401EB12419BB243EA0143C44546F80B
:10444000043B4FEA2141EFD80CF1FF36761B26F0F2
:104450000306264423B956F8043D013F002BFAD049
:104460000761BDE8F8832B464FF0010835461E462C
:10447000A8E7F8DB4FF00008A4E70021FFF78CFC69
:1044800060B101220023C0E90423BDE8F88302469D
:10449000064B07484FF4107100F0E4FB0246034B53
:1044A000034840F2322100F0DDFB00BF18A90208EA
:1044B0002CA90208124B10EE902A1A40A2F1507358
:1044C000002B04DD0020194641EC100B70475B42C5
:1044D0001B15132B07DC4FF40022002042FA03F1D6
:1044E00041EC100B7047143B1E2BDABF4FF000421B
:1044F00022FA03F301230021184641EC100B704708
:104500000000F07FF8B5046900F1140606EB84049E
:1045100054F8045C2846FFF74BFDC0F120030A283D
:104520000B60A4F1040131DD8E42A0F10B001AD220
:1045300054F8081C10B3C0F12007854021FA07F396
:104540001D4345F07F53A4F10805AE4201FA00F087
:1045500043F4401303D254F80C1CF94008430246BC
:1045600043EC102BF8BD40B105FA00F040F07F534A
:10457000002043F440130246F2E7014645F07F5322
:1045800043F440130A4643EC102BF8BD8E42C0F1B1
:104590000B0738BF54F8081C25FA07FC00F115007A
:1045A0004CF07F5334BFF940002105FA00F043F48A
:1045B000401340EA010243EC102BF8BD2DE9F04313
:1045C000884683B00121154657EC106BFFF7E4FBDA
:1045D0000446002850D0C7F30A59C7F31303B9F1B2
:1045E000000F01D043F48013002E019325D06846BC
:1045F0000096FFF7FDFC00283AD0DDE90013C0F17A
:10460000200203FA02F20A43C34001936261002BC5
:1046100014BF02210121A3612161B9F1000F17D05C
:10462000A9F2334909EB0003C0F13500C8F80030A6
:104630002860204603B0BDE8F08301A8FFF7D8FC4E
:10464000019B6361012120302161B9F1000FE7D1A5
:1046500004EB8103A0F23240C8F800001869FFF7AC
:10466000A7FCC0EB41102860204603B0BDE8F083F2
:10467000DDE900236261CAE70246034B034840F2CA
:104680000A3100F0EFFA00BF18A902082CA90208AD
:104690002DE9F04383B0884669468146FFF732FF33
:1046A000404601A955EC104BFFF72CFFDDE9001344
:1046B000D9F81020D8F81000CB1A121A03EB4213C5
:1046C000002B57EC106B0DDD05EB03594D463246C0
:1046D0003B462046294601F019FE41EC100B03B081
:1046E000BDE8F083C3EB033307EB03510F46EEE75E
:1046F0001728D0B504460CDD0A490B4F00200026D0
:1047000032463B4601F0D8FC013CF9D141EC100B9C
:10471000D0BD064B03EBC004D4E9040141EC100BFF
:10472000D0BD00BF0000F03F00002440D04E010883
:1047300070B414694E1E02F11403761103EB840168
:1047400001368B4200EB86060CD2041F53F8045B43
:1047500044F8045F9942F9D88B1A153B23F0030300
:1047600004331844864204D9002340F8043B8642AF
:10477000FBD870BC704700BF03694A11934210B464
:1047800000F1140410DA04EB83039C421ED253F8A8
:10479000040C043B18B115E053F8042D92B99C4267
:1047A000FAD35DF8044B704704EB8203EDDD11F0A2
:1047B0001F01EAD054F8220020FA01F202FA01F1B6
:1047C0008842E2D001205DF8044B70470020E8E702
:1047D00038B502FB01F42146FDF760FB054618B130
:1047E00022460021FDF7B4FA284638BD09B3F8B5D2
:1047F0001446CAB106460D4600F002FBA04202D3A1
:104800002F463846F8BD21463046FDF747FB0746A0
:104810000028F6D022462946FDF700FA3046294600
:10482000FDF7E6FA3846F8BD2746FDF7E1FA3846C7
:10483000F8BD1146FDF732BB2DE9F0478E681D46E5
:10484000AE420C460B68174636D88046888910F46D
:10485000906F0ED1354618462A46394600F068FA60
:10486000A2682368961B2B44A66023600020BDE845
:10487000F087D1E9041606EB4606A3EB010906EB27
:10488000D6766B1C76104B44B342324684BF1E462C
:104890003246430512D511464046FDF7FFFA8246DF
:1048A00000B34A462169FDF7B9F9A38923F490635F
:1048B00043F08003A38106E02E46CCE74046FFF795
:1048C00095FF824650B1A6EB09020AEB0903666127
:1048D000C4F810A02360A2602E46BCE721694046C0
:1048E000FDF786FA0C23C8F80030A38943F0400393
:1048F000A3814FF0FF30BAE72DE9F04F936883B002
:104900009046002B6DD017688D6882460C4608686B
:10491000083743E0A38913F4906F2ED0D4E904152F
:1049200005EB4505A0EB010B05EBD5750BEB060080
:104930006D100130A8422A4684BF05462A465B0511
:1049400036D511465046FDF7A9FA00283AD05A4606
:1049500021690190FDF762F9A289019B22F490621E
:1049600042F08002A281A5EB0B0203EB0B00656114
:1049700023612060A2603546B3465A46494600F09E
:10498000D7F9D8F80830A2682068551B58449E1BF8
:10499000A5602060C8F808601EB3083757E9029682
:1049A000AB46002EF9D0AE42B4D23546B346E4E76A
:1049B0005046FFF71BFF03460028D4D1216950461B
:1049C000FDF716FA0C23CAF80030A389002243F041
:1049D00040034FF0FF30A381C8E9012203B0BDE8D6
:1049E000F08F0020C8F8040003B0BDE8F08F00BFCE
:1049F0002DE9F04F90468A899FB014068B460290AD
:104A000003D50A69002A00F00B81059330238DF845
:104A1000323098F800308E4E002120220B918DF814
:104A200031200127002B00F08480252B00F0F68038
:104A3000454603E0252B00F0868025466B786C1CEC
:104A4000002BF7D1B4EB080A73D0424653465946BF
:104A50000298FFF7F1FE01306BD00B9B6A7853444C
:104A60000B93002A65D000234FF0FF3201340693E8
:104A7000CDE908338DF85B301C93079205E0069A68
:104A800007FA03F313432C4606932546052215F82F
:104A9000011B3046FFF72CF9AA46831B0028EED1F4
:104AA000069BD90644BF20228DF85B2021781A0787
:104AB00044BF2B228DF85B202A2948D1059A116822
:104AC0000432002905927EDB09916178A51C2E290C
:104AD00056D0604C03222046FFF70AF9002868D020
:104AE000001B069B402404FA00F00343069305F1E3
:104AF0000108297858488DF830100622FFF7F8F899
:104B0000002866D0554B002B56D005AB00935A4673
:104B1000534B029806A9FDF7E9FA8146B9F1FF3F28
:104B200007D00B9B4B440B9398F80030002B7FF47D
:104B30007CAFBBF80C305B0654BF0B984FF0FF30D6
:104B40001FB0BDE8F08FB4EB080A8CD07DE7A1F16F
:104B50003002092A88BFA246B9D8099B01E02C4639
:104B60000135297803EB830302EB4303A1F1300203
:104B7000092AAA46F3D92E2904F102050993A8D1DE
:104B80009AF801102A292ED1059B9AF802101A686A
:104B900007920433002A05930AF103050AF1020380
:104BA00037DB2C4C032220469A46FFF7A1F8002859
:104BB00096D1A84655469CE7059B073323F007038B
:104BC00008330593ADE7494243F002030991069388
:104BD0007BE705AB00935A46214B029806A9FDF7E7
:104BE000B3FD81469AE7A1F130020023092A079319
:104BF00001D923E05546697803EB830302EB4303B5
:104C0000A1F13002092A05F1010AF3D9023507930F
:104C10005FE74FF0FF329A4607925AE7444622E791
:104C200040210393FDF73AF9039BCBF80000CBF842
:104C3000100030B14022CBF81420E6E6AA46013538
:104C400047E7029A0C2313604FF0FF3078E700BF6C
:104C500060A9020868A902086CA90208ED200008F2
:104C60003948000800B50A4C2668054685B01C4640
:104C7000F06852B1074B0091CDE9013206492B464D
:104C8000224600F021F8FCF787FF044B1A46F2E7B2
:104C90000400002074A9020884A9020880A902085F
:104CA00008B513460022FFF7DDFF00BF0CB400B5C6
:104CB00083B004AB53F8042B019300F0EDF803B07C
:104CC0005DF804EB02B070470EB410B583B005ABCD
:104CD000064C53F8042B01930146206800F0DCF8E1
:104CE00003B0BDE8104003B0704700BF04000020CF
:104CF00010B4034CD4F8E440A4465DF8044B60477C
:104D00006800002082B049B15AB16BB113780B60D2
:104D10001278101C18BF012002B0704701A9002AA8
:104D2000F3D1104602B070476FF00100F4E700BF06
:104D30008842F0B40DD98B1883420AD9841832B155
:104D4000224613F8014D02F8014D9942F9D1F0BC09
:104D500070470F2A0ED80346541E002AF7D001349C
:104D60000C44013B11F8012B03F8012FA142F9D1AA
:104D7000F0BC704740EA01039B073BD1A2F110074A
:104D80003F0901F1200606EB071601F1100300F1BF
:104D9000100453F8105C44F8105C53F80C5C44F8B1
:104DA0000C5C53F8085C44F8085C53F8045C44F865
:104DB000045C1033B34204F11004EAD17B1C1B01E4
:104DC00012F00C0F194402F00F05034415D0043DF6
:104DD000AD0803EB850C1C1F0E4656F8047B44F807
:104DE000047F6445F9D10135AD002B44294402F01C
:104DF0000302B1E7541E0346B1E72A46ACE700BF01
:104E000051F8043C181F002BBCBF0B58C01870474A
:104E10009368013B002B936011DA10B49469A342AC
:104E200009DB0A2907D01368581C1060197008465E
:104E30005DF8044B70475DF8044B00F09BB91368B4
:104E4000581C106019700846704700BF9BB1F8B538
:104E500013440F4606465D1E541E01E0AC4208D0C6
:104E60003A4614F8011F3046FFF7D2FF431CF5D134
:104E7000F8BD0020F8BD0020704700BF936810B552
:104E8000144613B95360184610BD00F04BFC0023C4
:104E9000C4E9013310BD00BF2DE9F04F9FB08B4630
:104EA00090461C46039018B18369002B00F0B78030
:104EB000A24B9B4500F0B980A14B9B4500F0C780F9
:104EC000A04B9B4504BF039BD3F80CB0BBF80C3040
:104ED000180740F1B280DBF81030002B00F0AD80F5
:104EE00030238DF8323098F80030059400212022CC
:104EF0000B918DF83120944E0127002B00F0878014
:104F0000252B00F01581454603E0252B00F0A380FA
:104F100025466B786C1C002BF7D1B4EB080A76D0D1
:104F20004246534659460398FFF790FF01306ED032
:104F30000B9B6A7853440B93002A68D000234FF0F0
:104F4000FF3201340693CDE908338DF85B301C93B2
:104F5000079205E0069A07FA03F313432C460693DB
:104F60002546052215F8011B3046FEF7C1FEAA466C
:104F7000831B0028EED1069BD90644BF20228DF862
:104F80005B2021781A0744BF2B228DF85B202A2949
:104F900066D1059A1168043200290592C0F29D80FD
:104FA00009916178A51C2E2973D0684C03222046F4
:104FB000FEF79EFE002800F08680001B069B402422
:104FC00004FA00F00343069305F1010829786048CC
:104FD0008DF830100622FEF78BFE002800F083804B
:104FE0005C4B002B72D005AB00935A465A4B03988A
:104FF00006A9FDF77BF88146B9F1FF3F07D00B9B6F
:105000004B440B9398F80030002B7FF479AFBBF83A
:105010000C305B0618D40B981FB0BDE8F08F00F081
:1050200061FB464B9B457FF447AF039BD3F804B02D
:10503000BBF80C3018073FF54EAF5946039800F007
:1050400011F900283FF44CAF4FF0FF30E4E7039B29
:10505000D3F808B03AE7B4EB080A3FF46FAF5FE764
:10506000A1F13002092A88BFA2469CD8099B01E021
:105070002C460135297803EB830302EB4303A1F1AE
:105080003002092AAA46F3D92E2904F10205099310
:105090008BD19AF801102A292FD1059B9AF802107A
:1050A0001A6807920433002A05930AF103050AF1EE
:1050B000020338DB254C032220469A46FEF718FEF1
:1050C00000287FF47AAFA84655467FE7059B073353
:1050D00023F007030833059391E7494243F00203A5
:1050E000099106935DE705AB00935A461A4B039866
:1050F00006A9FDF729FB81467EE7A1F130020023D6
:10510000092A079301D915E05546697803EB830313
:1051100002EB4303A1F13002092A05F1010AF3D998
:105120000235079341E74FF0FF329A4607923CE77A
:10513000444603E7AA46013537E700BF3C51010862
:105140001C510108FC50010860A9020868A9020866
:105150006CA90208ED2000084D4E000810B4044C64
:1051600013460A46014620685DF8044BFFF794BEDB
:1051700004000020F8B50D461446064608B18369C0
:1051800043B3254B9C422AD0244B9C4229D0244B2C
:105190009C4208BFF468A389A269A2601A0722D5BD
:1051A000236903B322686169D31AEDB299422F468D
:1051B00029DD0133A168501C0139A1602060157000
:1051C00062699A4216D0A389DB0701D50A2D11D056
:1051D0003846F8BD00F086FA0F4B9C42D4D1746873
:1051E000D9E7B468D7E72146304600F03BF838B934
:1051F0002369D7E72146304600F04AF90028E7D076
:105200004FF0FF37E4E72146304600F041F900282F
:10521000F6D122680123CDE73C5101081C51010859
:10522000FC500108024B0A4601461868FFF7A2BF6E
:105230000400002010B4034CD4F8E040A4465DF80C
:10524000044B60476800002049B1FF2A02D80A7069
:10525000012070478A2303604FF0FF3070470846F3
:10526000704700BF3B4B70B51D6806460C460DB13C
:10527000AB69DBB1384B9C421ED0384B9C424AD0C4
:10528000374B9C4208BFEC68B4F90C2093B2190765
:1052900018D5206908B313F001022CD063690022ED
:1052A0005B42A361A26060B3002070BD284600F09D
:1052B00019FA294B9C42E0D16C68B4F90C2093B2E6
:1052C0001907E6D4DD063CD5580726D4206942F0FC
:1052D0000803A3819BB20028DDD103F42072B2F54C
:1052E000007FD8D03046214600F01EFCA3892069FB
:1052F00013F00102D2D1990758BF6269A260002859
:10530000D2D1B4F90C301A06CFD543F04003A381B3
:105310004FF0FF3070BDAC68B6E7616B51B104F17E
:105320004403994204D03046FCF762FDB4F90C20E6
:105330000023636300232069636022F0240220605D
:10534000C5E742F04002092333604FF0FF30A281ED
:1053500070BD00BF040000203C5101081C51010831
:10536000FC5001088B891A072DE9F0410C46804654
:1053700041D44A68002A59DDE66A002E53D0002243
:10538000D8F80050216AC8F8002013F4805251D197
:1053900001234046B047431C5FD0A389E66A216AD7
:1053A0005F0705D56268636B801A0BB1236CC01A66
:1053B000024600234046B047461C45D1D8F800308D
:1053C000B4F90C20002B55D01D2B01D0162B5AD12F
:1053D00023690022C4E90032616BC8F8005011B3A0
:1053E00004F14403994202D04046FCF701FD00203D
:1053F0006063BDE8F0810E69AEB10D680E6099077B
:105400000CBF63690023AD1BA3600AE02B46324644
:10541000A76A216A4046B8470028A5EB0005064464
:105420000ADD002DF2DC0020BDE8F0810A6C002AC4
:10543000A2DCF8E7606DB3E7A38943F04003A381E2
:105440004FF0FF30BDE8F0812269A389226000227D
:105450006260DA04C0D56065BEE7D8F80030002B82
:105460009BD01D2B0CD0162B0AD0A38943F04003F0
:10547000A381D9E72169C4E90013D304ACD5EAE7D5
:10548000C8F80050CFE742F04002A281CCE700BF4D
:105490000B6923B310B5044682B008B18369BBB170
:1054A000104B994212D0104B994216D00F4B994293
:1054B00008BFE168B1F90C302BB1204602B0BDE85D
:1054C0001040FFF74FBF002002B010BD6168F1E748
:1054D000019100F007F90199E2E7A168EAE70020ED
:1054E000704700BF3C5101081C510108FC500108E5
:1054F00020B1054B01461868FFF7CABF034B0449AA
:10550000186800F0B9BA00BF04000020C84E0108B6
:105510009154000800207047014900F0ADBA00BF67
:10552000915400080020704770B54A1E682505FB9D
:1055300002F50E4605F17401FCF7B0FC044640B1DB
:1055400000210C30666005F168022160A060FCF764
:10555000FFFB204670BD00BF1E4B70B51D68AB69D8
:10556000064643B34835D5E90134013B05D51EE075
:10557000013B5A1C04F1680419D0B4F90C20002A2C
:10558000F6D10025144B6566C4E90055A560C4E951
:105590000455A5612946E360082204F15C00FCF78C
:1055A000D7FBC4E90D55C4E91255204670BD2C68DF
:1055B0002CB12546D7E7284600F010F8D2E70421A1
:1055C0003046FFF7B1FF044628600028F1D10C23D4
:1055D0003360EAE7C84E01080100FFFF2DE9F84FEC
:1055E000334B34491A68816290424FF00003C0E99E
:1055F0001233036504BF012383610546FFF7ACFF47
:1056000068602846FFF7A8FFA8602846FFF7A4FFB8
:105610006E68E86000240423F3607466C6E9004401
:10562000B460C6E90444B461214606F15C00082276
:10563000FCF78EFBDFF888B0AF68DFF888A0DFF8F2
:105640008890DFF888801C4BC6F83080C6E9086B6C
:10565000C6E90AA92146FB6008227C66C7E9004426
:10566000BC60C7E90444BC6107F15C00FCF770FB57
:10567000EE68124BC7F83080C7E9087BC7E90AA972
:105680002146F3607466C6E90044B460C6E9044488
:10569000B46106F15C000822FCF75AFB0123C6E95D
:1056A000086BC6E90AA9C6F83080AB61BDE8F88F7F
:1056B000C84E010819550008090001001200020037
:1056C000BD5B0008E55B0008255C0008455C000840
:1056D000024B0349186800F0CFB900BFC84E01085B
:1056E00091540008836903B978E77047704700BF99
:1056F000704700BF704700BF704700BF024B0349AF
:10570000186800F093B900BF040000201555000888
:10571000024B0349186800F089B900BF040000205B
:10572000255500089368002B00F002812DE9F04F09
:10573000B1F90C309BB20C46190783B082469046F3
:1057400035D522699AB313F00202D8F800603DD033
:105750000027D4F828B0D4F820C0DFF8CC923D461A
:105760004D452B463A4628BF4B4661465046D5B17B
:10577000D847002840F3D280D8F808301B1A0744D5
:105780002D1AC8F80830002B00F0B780D4F820C0DC
:10579000D4F828B04D452B463A4628BF4B466146C3
:1057A0005046002DE4D1D6E900750836D8E72146E9
:1057B0005046FFF757FD002840F03081B4F90C3017
:1057C000D8F800609BB213F00202C1D113F00109B6
:1057D00040F0B080A76820684D46002D54D09A054F
:1057E00040F1BC80AF42BB4600F2E78013F4906FFB
:1057F0002FD0D4E9041707EB4707A0EB010B07EB09
:10580000D777681C7F105844B8423A4684BF074691
:105810003A465B0540F1E98011465046FCF73EFBF5
:10582000002800F0F5805A4621690190FCF7F6F94E
:10583000A289019B22F4906242F08002A281A7EB30
:105840000B0203EB0B00676123612060A2602F460F
:10585000AB465A464946FFF76BFAA2682368D21B4B
:105860005B442F46A26023600025D8F80830DB1B7C
:10587000B944C8F80830002B3FD0B4F90C30A76801
:1058800020689BB2002DAAD1D6E900950836A4E77E
:105890000BF1080353E902679B460833002FF9D048
:1058A0003A460A213046FEF723FA002853D0013049
:1058B000A0EB06094B46D4E904122068BB4228BF7E
:1058C0003B46884203D9A5681544AB4219DC9A428D
:1058D0007DDC1346A56A216A32465046A847051E5C
:1058E0001CDDB9EB05096BD00120D8F808305B1B33
:1058F0002E447F1BC8F8083013BB002003B0BDE85E
:10590000F08F31462A46FFF713FA23682B442360B1
:1059100021465046FFF7BCFD0028E2D0B4F90C3018
:1059200043F040034FF0FF30A38103B0BDE8F08F98
:105930000020704733469146104617464E469B4618
:10594000002FA5D00028B5D13A460A213046FEF7EF
:10595000CFF90028ABD17B1C9946ACE72369834281
:1059600015D36169A94212D82E4BA76A9D4294BFF4
:105970002B466FF000434A4693FBF1F3504601FB80
:1059800003F3216AB847071EC8DDED1B6DE7AF4280
:1059900028BF2F463A464946FFF7CAF9A36822684E
:1059A000DB1B3A44A3602260002BEED12146504617
:1059B000FFF76EFD0028E8D0B0E72F46AB4648E77A
:1059C00021465046FFF764FD00288ED0A6E71A4610
:1059D00031460193FFF7ACF9019BA1682268C91A0F
:1059E0001A44A16022601D467BE75046FEF7FEFE8A
:1059F000034600287FF423AF21695046FCF7F8F9ED
:105A0000B4F90C300C2223F08003CAF8002087E799
:105A10000C23CAF80030B4F90C3081E74FF0FF30A6
:105A20006CE700BFFEFFFF7F00FCFF7F2DE9F04128
:105A300010F148071BD088460026D7E90154013DE4
:105A40000FD4A389012B05F1FF3506D9B4F90E3027
:105A50000133204601D0C04706436B1C04F16804A3
:105A6000EFD13F68002FE8D13046BDE8F0813E46D7
:105A70003046BDE8F08100BF2DE9F84310F148073A
:105A80001FD0884606464FF00009D7E90154013D72
:105A900011D4A389012B05F1FF3508D9B4F90E30D3
:105AA00001332146304602D0C04749EA00096B1C49
:105AB00004F16804EDD13F68002FE6D14846BDE807
:105AC000F883B9464846BDE8F88300BF70B50C4678
:105AD000B1F90E10002996B016461D4613DB6A4632
:105AE00000F0DCF800280EDB019A02F47042A2F507
:105AF0000052B2FA82F252094FF4806300202A6009
